:100000000C9495010C9403120C9437120C94B201C9
:100010000C94B2010C946A120C94B2010C94B312B9
:100020000C94B2010C94B2010C94F5120C94B20130
:100030000C94B2010C94B2010C94B2010C94B20174
:100040000C94B2010C94B2010C9449130C94B201BB
:100050000C94B2010C94B2010C94B2010C94B20154
:100060000C94B2010C94B20107634236B79BD8A737
:100070001A39685618AEBAAB558C1D3CB7CC5763CD
:10008000BD6DEDFD753EF6177231BF000000803F7B
:1000900008000000BE922449123EABAAAA2ABECD97
:1000A000CCCC4C3E00000080BEABAAAAAA3E000009
:1000B0000000BF000000803F000000000008417801
:1000C000D3BB4387D1133D190E3CC3BD4282AD2B38
:1000D0003E68EC8276BED98FE1A93E4C80EFFFBE30
:1000E00001C4FF7F3F000000000005000000000089
:1000F0000500005F000005000700070005147F14DD
:100100007F1405242A7F2A1205231308646205360A
:100110004956205005080703000005001C22410035
:10012000050041221C000514083E08140508083E7D
:1001300008080500B0700000050808080808050058
:1001400060600000052010080402053E5149453E4C
:100150000500427F40000572494949460521414951
:100160004D33051814127F10052745454539053CC8
:100170004A4949310541211109070536494949369E
:1001800005464949291E05000014000005004034B9
:10019000000005081422410005141414141405412C
:1001A00022140800050201590906053E415D594E19
:1001B000057C1211127C057F49494936053E4141B3
:1001C0004122057F4141413E057F49494949057F1B
:1001D00009090909053E41415173057F0808087F57
:1001E0000500417F4100052040413F01057F081483
:1001F0002241057F40404040057F020C027F057F81
:100200000408107F053E4141413E057F090909066A
:10021000053E4151215E057F0919294605264949B8
:1002200049320501017F0101053F4040403F051F64
:100230002040201F053F4038403F056314081463E9
:1002400005030478040305615149454305007F41D6
:100250004100050204081020050041417F0005040B
:100260000201020405404040404005070B00000029
:10027000052054547840057F2844443805384444C8
:10028000442805384444287F053854545418050040
:10029000087E09020518A4A49C78057F0804047848
:1002A0000500447D4000052040403D00057F1028AA
:1002B00044000500417F4000057C04780478057CFB
:1002C0000804047805384444443805FC18242418EC
:1002D0000518242418FC057C080404080548545417
:1002E00054240504043F4424053C4040207C051C64
:1002F0002040201C053C4030403C05442810284448
:10030000054C9090907C054464544C44050008369C
:100310004100050000770000050041360800050493
:100320000204080405007F417F0011241FBECFEFA7
:10033000D8E0DEBFCDBF11E0A0E0B1E0E0E2F1E344
:1003400002C005900D92AA33B107D9F725E0AAE3C0
:10035000B1E001C01D92A337B207E1F70E947F13FD
:100360000C948E180C9400006AE070E00E94501407
:1003700008952AE030E0B9010E945014CB01B90180
:100380000E945014089564E670E00E945014CB015E
:100390006AE070E00E9450140895A1E6B1E0119661
:1003A000EC9111979C9121E0290F2C93E695E6950D
:1003B000E69520E8E29FF0011124E459FE4FE90F91
:1003C000F11D8083089587FF809361010895803433
:1003D00010F4809362010895CF93C62F0E94E30129
:1003E0008C2FCF910C94E7018830B8F4682F660FFA
:1003F000660F660F80E00E94EC01E0916201E695D5
:10040000E695E69580E8E89FF0011124E459FE4F57
:1004100080E011928F5F8038E1F70895883028F4EA
:10042000880F880F880F8093620108958091610181
:100430000895809162010895809162018695869564
:10044000869508951F93CF93DF93162FEA010E949C
:10045000EC01E0916201E695E695E69580916101F7
:1004600090E8E99FF0011124E80FF11DE459FE4FD7
:100470009081177041E050E060E070E004C0440FEC
:10048000551F661F771F1A95D2F7CF3FD10519F474
:10049000892F842B03C04095842F89238083DF918B
:1004A000CF911F910895EF92FF921F93CF93DF9307
:1004B000C82FD62F142F7901681710F4C62FD82F04
:1004C000DC1738F0A701612F8C2F0E942202CF5F2A
:1004D000F7CFDF91CF911F91FF90EF9008959F92FA
:1004E000AF92BF92CF92DF92EF92FF920F931F9342
:1004F000CF93DF9387FDB8C047FDB6C0603408F0E6
:10050000B3C0203408F0B0C02F5FB22EB61A4F5FD0
:10051000D42FD81B962F9770C62FC91BCB2CD12C4C
:1005200028E030E0A901491B5109C416D5066CF436
:100530002C193D094FEF50E07A0102C0F594E79481
:100540002A95E2F72E2D9B2C04C028E0922E991AB2
:100550002FEFA82EE22E01C0EE0C9A95EAF7FE2CA2
:100560006C2F0E94EC01409161018091620186959F
:100570008695869520E8829FC001112430E0E094A2
:10058000232F240FD31779F0FC01E20FF11DE4595A
:10059000FE4F20810F3F110511F42F2901C02E219C
:1005A00020833F5FEDCF209361019C1A292D2C0FF2
:1005B000822F90E0AC01495F5F4F4C155D0504F55B
:1005C000C85F6C2F8A2D0E94EC01409161018091DF
:1005D000620186958695869520E8829FC001112448
:1005E00020E084599E4F322F340FD21731F0FC0196
:1005F000E30FF11D00832F5FF6CF30936101D6CF5B
:100600002B1590F5C81AD90A8FEF90E001C0880F1A
:10061000CA94EAF7F82EF09468E06C0F8A2D0E94D5
:10062000EC014091610180916201869586958695E5
:1006300020E8829FC001112430E05F2D5095232FC8
:10064000240FD31779F0FC01E20FF11DE459FE4F9E
:1006500020810F3F110511F42F2901C0252320838C
:100660003F5FEDCF20936101DF91CF911F910F91FB
:10067000FF90EF90DF90CF90BF90AF909F90089544
:100680000F931F93942F681718F4482F862F642F09
:100690008901262F492F682F892F0E946F021F91F1
:1006A0000F910895EF92FF920F931F93CF93DF93D3
:1006B000E82EC62FF42ED22F9801462F6F2D0E94C0
:1006C000530298014D2F6F2D8E2D0E9453029801D9
:1006D0004E2D6D2F8C2F0E94400398014F2D6D2FB2
:1006E0008C2FDF91CF911F910F91FF90EF900C9481
:1006F00040032F923F924F925F926F927F928F9220
:100700009F92AF92BF92CF92DF92EF92FF920F93A0
:100710001F93CF93DF93CDB7DEB729970FB6F89429
:10072000DEBF0FBECDBF6C016887290190906101CB
:10073000209162012987862F890D87FF03C030E849
:1007400039193887242E312C8101095F1F4F83E02E
:10075000159507958A95E1F7898486948694869401
:10076000882D800F893020F0081B1109085F1F4F6A
:1007700069856770762EF984E12C9885892F90E041
:100780009D838C8388E090E0FC01E61BF109FF83E8
:10079000EE83AE2CB12CA016B10608F07CC06F2DF4
:1007A000892D0E94EC01F885EF9E90011124A9018A
:1007B0006C817D81461B570B709161017B83A090FA
:1007C0006201A694A694A694B12CC5019695982F83
:1007D0008827979587952C0D3D1D612CBC01645988
:1007E0007E4F7A8369838B81860D6885661569F1F2
:1007F000F9016491072C01C0660F0A94EAF7E62F0D
:10080000EE2079F0DA011196F601E40FF51FE4917C
:10081000F0E00E8002C0F595E7950A94E2F7E62B2A
:10082000AD0190E0F1E04F16510431F4A981BA8195
:10083000A80FB91F6C91E62BA981BA81A80FB91F27
:10084000EC9363942F5F3F4FCECF80936101209153
:100850006A0130916B0190E0232B61F0F501F69570
:10086000FE2FEE27F795E795E459FE4FE80FF91FA5
:10087000408101C040E095013695322F22273795FF
:10088000279524593E4FF901E80FF91F408378E07E
:10089000F70EE3947ECF282D30E0A1018985480F23
:1008A000511DCA01019797FD0796E3E0959587953D
:1008B000EA95E1F72817390709F469C09FE39F1506
:1008C00008F465C06F2D892D0E94EC011091610123
:1008D0008091620186958695869590E0AC0156954B
:1008E000542F442757954795E1E0AE1AB108288563
:1008F0002A9DF0012B9DF00D1124EC0DFD1D00E053
:1009000068E070E067197109302F310FA32FB0E054
:1009100028852017B9F0A40FB51FA459BE4FFC902D
:10092000249130E0062E02C0359527950A94E2F70F
:100930002F2931E04316510409F42F292C930F5F1E
:100940003196E2CF40916A0150916B0141155105FA
:1009500081F0FC01F695FE2FEE27F795E795E45917
:10096000FE4FEA0FFB1F20814130510519F0209501
:1009700001C020E03F5F309361019695982F882752
:100980009795879584599E4FA80FB91F2C93698519
:100990008091610129960FB6F894DEBF0FBECDBFDE
:1009A000DF91CF911F910F91FF90EF90DF90CF904B
:1009B000BF90AF909F908F907F906F905F904F907F
:1009C0003F902F900C94EC017F928F929F92AF9268
:1009D000BF92CF92DF92EF92FF920F931F93CF932C
:1009E000DF93D82FC62FF42E622F87FD99C047FDC5
:1009F00097C0C03408F094C0203408F091C084132C
:100A000012C09801482F8C2FDF91CF911F910F9129
:100A1000FF90EF90DF90CF90BF90AF909F908F901E
:100A20007F900C944003C21312C098014C2F6F2D7D
:100A3000DF91CF911F910F91FF90EF90DF90CF90BA
:100A4000BF90AF909F908F907F900C9453028C2F0B
:100A500090E0A22EB12C2C1728F49C012A193B09F6
:100A6000590102C0A81AB90A8D2F90E0CF2CD12CC1
:100A7000FD1670F49C012C193D0969012A153B05EE
:100A8000ECF18C2FC62F682F8D2FDF2DF82E05C08F
:100A9000C81AD90ACA14DB043CF09F2C9D1AC61749
:100AA00068F4862E8C1A0CC06C1798F59C2E961A3A
:100AB0008D2FD62F682F8F2DFC2EC82F8C2E861AA7
:100AC000E92CE694C61718F077247A9411C077249D
:100AD00073940EC0A801CA14DB046CF46D2F8C2F24
:100AE0000E942202E818E7FE02C0C70DE90CDF5F92
:100AF000FD1680F715C06C2F8D2FF2CF6C1748F4C0
:100B00009C2E961A8D2FD62F682F8F2DFC2EC82F36
:100B1000C8CF8F2DF62E682F8D2FDC2FC82FBDCF7D
:100B2000DF91CF911F910F91FF90EF90DF90CF90C9
:100B3000BF90AF909F908F907F9008950F931F93D9
:100B400087FD08C047FD06C0603420F4203410F44F
:100B50000E9452031F910F9108955F926F927F92AE
:100B60008F929F92AF92BF92CF92DF92EF92FF92BD
:100B70000F931F93CF93DF9387FD84C047FD82C0FF
:100B8000603408F07FC0203408F07CC0122FC42EDF
:100B9000D62E982EC3E0D0E082E0089FC019D1097C
:100BA0001124B42EB01AA92CA00E9701462F6B2D3C
:100BB0008A2D0E9453029701412F6B2D8A2D0E948E
:100BC0005302101BD00E9701492D612F8D2D0E94CD
:100BD000400397014C2D612F8D2D0E944003C12CA5
:100BE000A7017D2C701A672D8A2C8C18882D0E94E5
:100BF0002202A7019D2C9C18692D5A2C501A852D74
:100C00000E942202A701672D7B2C7C0C872D0E945D
:100C10002202A701692D9B2C900E892D0E94220291
:100C2000A701612E600E662D882D0E942202A70169
:100C3000812E8C0C682D852D0E942202A701662D25
:100C4000872D0E942202A701682D892D0E94220271
:100C50008C2D90E0D7FF08C0880F991F880F991F2F
:100C60000696C80FD91F0AC0801B9109880F991FCB
:100C7000880F991F0A96C80FD91F0150C3940C15ED
:100C800008F0AECFDF91CF911F910F91FF90EF90C1
:100C9000DF90CF90BF90AF909F908F907F906F909C
:100CA0005F900895AF92BF92CF92DF92EF92FF9242
:100CB0000F931F93CF93DF9387FD1FC047FD1DC088
:100CC00007FD1BC06034C8F42034B8F49FE39E15C0
:100CD000A0F0C02FA22EB42EF62ED82F86010E948F
:100CE000E4042E2D4C2F6A2D8B2D0E94E4042F2D11
:100CF0004D2F6E2D8C2F0E94E404DF91CF911F9118
:100D00000F91FF90EF90DF90CF90BF90AF9008953C
:100D10005F926F927F928F929F92AF92BF92CF928B
:100D2000DF92EF92FF920F931F93CF93DF93E42F05
:100D3000F0E0DF01A80FB11DA038B1050CF069C0CB
:100D4000DF01A60FB11DA034B1050CF062C089010E
:100D5000E62EF82EEE0FFF1F81E090E06C01CE1A18
:100D6000DF0AC42F88248394912CA12CB12CD0E0CD
:100D70006E2C6D0EA801662D7F2C7C0E872D0E9497
:100D80002202A801662D6F2C6C1A862D0E94220269
:100D90005E2C5D1AA801652D862D0E942202A801F5
:100DA000652D872D0E9422026F2C6D0EA8017E2CCE
:100DB0007C0E672D862D0E9422025F2C5D1AA801F1
:100DC000672D852D0E942202A8017E2C7C1A672D9A
:100DD000852D0E942202A801672D862D0E942202E5
:100DE000DF5FA80CB91C22E0820E911CC501880FA0
:100DF000991F8C0D9D1D1816190644F4C1509C01B5
:100E00002A193B09590132E0C30ED11CCD1708F055
:100E1000AFCFDF91CF911F910F91FF90EF90DF90B7
:100E2000CF90BF90AF909F908F907F906F905F908A
:100E3000089590E0E92FE695E695E69520E8E29F93
:100E4000F0011124E459FE4F20E081932F5F2038F8
:100E5000E1F7985F903471F7089580E090E00C948A
:100E600019070F931F930E946F021F910F9108950E
:100E70004F925F926F927F928F929F92AF92BF92AA
:100E8000CF92DF92EF92FF920F931F93CF93DF9356
:100E900087FD5EC047FD5CC0603408F059C0203457
:100EA00008F056C0C02F922E862E23E030E0690154
:100EB00092E0099FC018D1081124B42EB01AA82EB0
:100EC000A00E8701292D4B2D8A2D0E946F02D0E0A4
:100ED0009C1A8C0E8701492C4C0E242D8A2D8D1BBB
:100EE000482F582C5C1A652D0E94E404692C6D0E65
:100EF000262D8A2D8C1B482F782C7D1A672D0E9459
:100F0000E404242D8B2D8D0F482F652D0E94E404C1
:100F1000262D8B2D8C0F482F672D0E94E404ED2F7A
:100F2000F0E0D7FE08C0EE0FFF1FEE0FFF1F369652
:100F3000CE0EDF1E0AC0EC1BF109EE0FFF1FEE0FF5
:100F4000FF1F3A96CE0EDF1EC150DF5FCD1710F6A1
:100F5000DF91CF911F910F91FF90EF90DF90CF9095
:100F6000BF90AF909F908F907F906F905F904F90C9
:100F700008952F923F924F925F926F927F928F923D
:100F80009F92AF92BF92CF92DF92EF92FF920F9318
:100F90001F93CF93DF93CDB7DEB76A970FB6F89460
:100FA000DEBF0FBECDBF6A8F298FD88ACF8687FD5F
:100FB0004BC147FD49C107FD47C1603408F044C13A
:100FC000203408F041C12FE32E1508F43DC1998D5E
:100FD000E91628F4E98EE92E942F402F092FA98DC8
:100FE000BA8DAB1728F4AA8FB98F982F842F492F69
:100FF000C82ED12CA42EB12C2A8D222E312C898DD5
:10100000882E912CB6016A197B09072E000C880BDB
:10101000990B0E94B6152B013C01B10168197909A1
:10102000072E000C880B990B0E94B6159B01AC0192
:10103000C301B2010E940C156F83788789879A8754
:10104000A02FB0E0BA83A9838E2D90E09E838D837C
:10105000B5016A1B7B0B072E000C880B990B0E94B5
:10106000B6152B013C01B401AD81BE816A1B7B0B1F
:10107000072E000C880B990B0E94B6159B01AC0142
:10108000C301B2010E940C15698B7A8B8B8B9C8BF0
:1010900069817A816C197D09072E000C880B990BE8
:1010A0000E94B6154B015C016D817E816219730946
:1010B000072E000C880B990B0E94B6159B01AC0102
:1010C000C501B4010E940C156B877C878D879E87B4
:1010D000C6010D2C000CAA0BBB0B8D8B9E8BAF8B0E
:1010E000B88FB98D2A8DB21708F443C09A8D692F35
:1010F00070E062197309072E000C880B990B0E948F
:10110000B6152B013C016D897E898F89988D0E94CF
:10111000B6154B015C01A30192016F817885898529
:101120009A850E946B16A50194010E949B140E944F
:101130008515F62E162FA30192016B857C858D8572
:101140009E850E946B16A50194010E949B140E942B
:101150008515462F6F1510F4F62E412F0F8518892F
:101160002A8D622F8F2D0E94E404AA8DAF5FAA8F73
:10117000B8CF89819A81092E000CAA0BBB0B8983F9
:101180009A83AB83BC83C601DD0CAA0BBB0B8F8398
:101190009887A987BA87298DE21608F455C0998DDA
:1011A000A92EB12CB501AD81BE816A1B7B0B072E28
:1011B000000C880B990B0E94B61529893A894B8936
:1011C0005C890E946B162B013C0169817A818B81BD
:1011D0009C810E94B6159B01AC01C301B2010E9423
:1011E0009B140E9485156D8BF62EB501621973094B
:1011F000072E000C880B990B0E94B6152B853C8599
:101200004D855E850E946B164B015C016F81788570
:1012100089859A850E94B6159B01AC01C501B40170
:101220000E949B140E948515462F6F1510F46D8B3C
:101230004F2D0F851889298D622F8D890E94E40416
:10124000B98DBF5FB98FA7CF6A960FB6F894DEBF8E
:101250000FBECDBFDF91CF911F910F91FF90EF9007
:10126000DF90CF90BF90AF909F908F907F906F90C6
:101270005F904F903F902F900895AF92BF92CF9282
:10128000DF92EF92FF920F931F93CF93DF93C42FC0
:1012900050E0FA01E80FF11DE038F1050CF04AC00A
:1012A000460F511D403451050CF044C06901F62E23
:1012B000D82F81E0E82EEC1ABC2EB194BB0C2C2F59
:1012C000260F6C1B86014D2F8D2F0E94E40410E029
:1012D0001C1780F5E7FC04C0C150B394B394EB0C29
:1012E0001F5F812F880F8F5FE80E4D2F410F9601F2
:1012F000AF2CAC1A6A2D0C2F0F0D802F0E944003CB
:101300004D2F411B96016A2D802F0E944003AF2C68
:10131000A11A0F2D010F96014C2F4D0F6A2D802F12
:101320000E94400396014D2F4C1B6A2D802F0E9476
:101330004003CECFDF91CF911F910F91FF90EF909F
:10134000DF90CF90BF90AF900895BF92CF92DF9281
:10135000EF92FF920F931F93CF93DF93E82ED42F3A
:10136000D81BFF24F394FD0ED22ED61AD394862FC9
:101370008770C62FC81B0D2D10E028E030E0A901B2
:10138000481B5109041715075CF4201B310B6FEF44
:1013900070E002C0759567952A95E2F7BD2C04C0F0
:1013A00098E0B92EB81A6FEFC62E01C0CC0C8A9502
:1013B000EAF76C2F8E2D0E94EC0190916101209133
:1013C000620126952695269580E8289F9001112494
:1013D00080E0482F490F8F1550F4F901E40FF11DFB
:1013E000E459FE4F40814C2540838F5FF2CF9F5FD1
:1013F0009D0F90936101BC1A2B2D2C0F822F90E032
:10140000AC01495F5F4F4017510724F5C85F6C2F4F
:101410008E2D0E94EC019091610120916201269530
:101420002695269580E8289F9001112480E0482F7A
:10143000490F8F1550F4F901E40FF11DE459FE4FE7
:101440004081409540838F5FF2CF9F5F9D0F9093C7
:101450006101D2CF2D1568F5081B190B8FEF90E0B5
:1014600001C0880F0A95EAF7182F109568E06C0FF5
:101470008E2D0E94EC0180916101209162012695E0
:101480002695269590E8299F9001112490E0492FF8
:10149000480F9F1550F4F901E40FF11DE459FE4F78
:1014A0004081412740839F5FF2CF8F5F8D0F8093F4
:1014B0006101DF91CF911F910F91FF90EF90DF902D
:1014C000CF90BF90089567FD1EC04034E0F42230F5
:1014D0003105C8F4909366018093650160936701BC
:1014E0004093680150E0CA01019797FD079643E0D9
:1014F000959587954A95E1F78F5F809369013093C1
:101500006B0120936A010895E1E6F1E09681408540
:10151000949FA00111244F5F5F4F082E000C990B80
:101520008097489F9001499F300D589F300D11249E
:101530000480F581E02DE20FF31F84918F5F089501
:101540000F931F93CF93DF938C01C0E0D0E0F8019D
:1015500081918F01882329F00E94840AC80FD11D30
:10156000F6CFCE01DF91CF911F910F9108950F9388
:101570001F93CF93DF93FC018491EF0100E010E013
:101580002196882339F00E94840A080F111DFE015C
:101590008491F6CFC801DF91CF911F910F910895EB
:1015A0002F923F924F925F926F927F928F929F9273
:1015B000AF92BF92CF92DF92EF92FF920F931F9361
:1015C000CF93DF9300D000D000D0CDB7DEB7F0903E
:1015D0006101E09062018052909167012091690160
:1015E000929F900111242F5F3F4F482F42036001CB
:1015F000439FD00C1124DE82CD82C60101969A83CE
:101600008983E0916501F0916601EC0DFD1D149157
:101610009E2D9770C92EDE2C00E088E090E0DC0162
:10162000AC19B109BC83AB8380916901081708F03C
:1016300064C06D2D8F2D0E94EC0149815A81400FAD
:10164000511DDA0111974090650150906601A090FC
:101650006901B12C20906A0130906B01709061019A
:1016600090906201969496949694E0E89E9EC001B4
:101670001124440D551D812C84599E4F282D270D72
:10168000811651F1FA0164910C2C01C0660F0A9485
:10169000EAF7662E002371F0F201EA0FFB1FE491D6
:1016A000F0E00B8002C0F595E7950A94E2F76E2A08
:1016B000AA0DBB1D30E0F1E02F16310429F4FC0126
:1016C000E20FF31F6081662AFC01E20FF31F6082C4
:1016D00083944A0D5B1DD2CF20936101232849F4E6
:1016E00030E8939EF0011124E459FE4FE20FF11D02
:1016F000108248E0D40E0F5F97CF4E2D4695469549
:10170000469550E0809168012E2D30E0280F311D64
:10171000C901019797FD079633E0959587953A950E
:10172000E1F74817590709F45AC05FE35D1508F45B
:1017300056C06D2D8F2D0E94EC01B09061018091FB
:10174000620186958695869590E0BC017695762F08
:1017500066277795679540916A0150916B012091BA
:10176000690130E0AD81BE81A00FB11DE09165013E
:10177000F0916601EA0FFB1F00E0A8E0B0E0AC19B1
:10178000B109BA83A983A02FAB0D0117C9F06B0172
:10179000CA0ED11CD601A459BE4FAC90C490D12C16
:1017A000098002C0D594C7940A94E2F7CA28413050
:1017B000510509F4CA28CC920F5FE20FF31FE3CF63
:1017C000A0936101452B59F4FC01F695FE2FEE27FD
:1017D000F795E795E459FE4FEA0FF11D108281E07D
:1017E0008F0D6E2D810F26960FB6F894DEBF0FBEBB
:1017F000CDBFDF91CF911F910F91FF90EF90DF90C0
:10180000CF90BF90AF909F908F907F906F905F90A0
:101810004F903F902F900C94EC01CF93DF93EC010D
:101820008991882369F0909161012091670130E0EE
:10183000290F311D203831051CF40E94D00AF0CF49
:10184000DF91CF910895CF93DF93FC018491EF0155
:10185000882381F02196909161012091670130E009
:10186000290F311D203831052CF40E94D00AFE01C9
:101870008491EECFDF91CF9108950F931F93CF9373
:10188000DF93CDB7DEB72C970FB6F894DEBF0FBE4F
:10189000CDBF611571058105910521F480E30E949A
:1018A000D00AD5C061157105810500E8900709F4DB
:1018B000CEC0FE0131962CE0DF011D922A95E9F79A
:1018C00020E3298397FF0BC08B019C0144275527F8
:1018D000BA01401B510B620B730B91E003C0AB01CB
:1018E000BC0190E080E3282F8F5F41151AEC51076F
:1018F0001AE961071BE3710724F05A5C6A497B43CC
:10190000F2CF2A8380E3282F8F5F411531EE5307F2
:1019100035EF630735E0730724F0515E654F75407E
:10192000F2CF2B8380E3282F8F5F4038A6E95A0738
:10193000A8E96A0771052CF04058564968497109B1
:10194000F2CF2C8380E3282F8F5F4034B2E45B0713
:10195000BFE06B0771052CF0405452446F40710991
:10196000F2CF2D8380E3282F8F5F403A06E850079F
:1019700001E0600771052CF0405A5648614071093A
:10198000F2CF2E8380E3282F8F5F403117E251077B
:10199000610571052CF04051574261097109F3CF7F
:1019A0002F8380E3282F8F5F483E33E05307610584
:1019B00071052CF0485E534061097109F3CF288707
:1019C00080E3282F8F5F44365105610571052CF0A7
:1019D0004456510961097109F4CF298780E3282F02
:1019E0008F5F4A305105610571052CF04A5051094D
:1019F00061097109F4CF2A87405D4B8720E0DF0140
:101A0000A20FB11D8C91803311F42F5FF8CF992371
:101A100031F02150DF01A20FB11D8DE28C939AE0CD
:101A2000921B80E030E0BF01680F711DAB01420FD7
:101A3000531FDA014C91DB014C938F5F981798F795
:101A4000DF01A80FB11D1C92CF010E940D0C2C9636
:101A50000FB6F894DEBF0FBECDBFDF91CF911F91BF
:101A60000F9108958F929F92AF92BF92CF92DF9283
:101A7000EF92FF92CF936B017C01C42F20E030E006
:101A8000A9010E940715811112C080E30E94D00AAB
:101A90008EE20E94D00A80E3CF91FF90EF90DF901A
:101AA000CF90BF90AF909F908F900C94D00A20E081
:101AB00030E040E05FECC701B6010E94661687FD8A
:101AC00050C020E030E040E05FE4C701B6010E9472
:101AD000071587FF46C020E030E0A901C701B60125
:101AE0000E94071587FF07C0F7FAF094F7F8F09403
:101AF0008DE20E94D00AC701B6010E947E150E94A5
:101B00003D0C8EE20E94D00A6C2F70E080E090E0E5
:101B10000E94B4159B01AC0160E070E080E291E4AA
:101B20000E94D8164B015C01C701B6010E948515C1
:101B30000E94B4159B01AC01C701B6010E949A1422
:101B4000A50194010E946B160E947E15CF91FF9013
:101B5000EF90DF90CF90BF90AF909F908F900C94BC
:101B60003D0CCF91FF90EF90DF90CF90BF90AF9062
:101B70009F908F9008953B9A3C9A439A449A109272
:101B8000B90088E48093B80084E08093BC00089595
:101B90008091B900887F089584EA8093BC00809189
:101BA000BC0087FFFCCF8091B900887F089585ED48
:101BB0008093BC008091BC0084FDFCCF089580938D
:101BC000BB0084E88093BC008091BC0087FFFCCF01
:101BD0008091B900887F0895FF920F931F93CF9350
:101BE000DF93C82FF62E072F142F0E94CC0D88E705
:101BF0000E94DF0D8C2F0E94DF0DCF2DD02FCE0144
:101C0000810F911D8C01C017D10721F089910E948D
:101C1000DF0DF9CFDF91CF911F910F91FF900C94C1
:101C2000D70DCF93DF931F92CDB7DEB7898341E005
:101C3000BE016F5F7F4F80E00E94EC0D0F90DF913F
:101C4000CF9108950E94BB0D8EEA0E94110E85ED82
:101C50000E94110E80EF0E94110E88EA0E94110E60
:101C60008FE30E94110E83ED0E94110E80E00E940E
:101C7000110E8DE80E94110E84E10E94110E80E485
:101C80000E94110E80E20E94110E80E00E94110E4F
:101C900081EA0E94110E88EC0E94110E8AED0E94CA
:101CA000110E82E10E94110E81E80E94110E8FEF49
:101CB0000E94110E89ED0E94110E81EF0E94110EFB
:101CC0008BED0E94110E80E20E94110E84EA0E94A8
:101CD000110E86EA0E94110E8EE20E94110E8FEA0A
:101CE0000E94110E60E080E00E94EC01E1E6F1E06C
:101CF00086EA90E09383828310861782168211828F
:101D000010820895811102C08EEA01C08FEA0C94FE
:101D1000110ECF93C82F81E80E94110E8C2FCF9106
:101D20000C94110ECF93DF93D82FC62F87E20E9419
:101D3000110E80E00E94110E8D2F0E94110E80E086
:101D40000E94110E8C2F0E94110E80E00E94110E35
:101D50008FEF0E94110E8FE2DF91CF910C94110E44
:101D6000CF93DF93D82FC62F86E20E94110E80E01A
:101D70000E94110E8D2F0E94110E80E00E94110E04
:101D80008C2F0E94110E80E00E94110E8FEF0E9496
:101D9000110E8FE2DF91CF910C94110ECF93DF9350
:101DA000D82FC62F83EA0E94110E80E00E94110EE8
:101DB00080E40E94110E8AE20E94110E80E00E94CF
:101DC000110E8D2F0E94110E80E00E94110E8C2F9B
:101DD0000E94110E81E00E94110E8FE2DF91CF91DF
:101DE0000C94110ECF93DF93D82FC62F83EA0E9455
:101DF000110E80E00E94110E80E40E94110E89E213
:101E00000E94110E80E00E94110E8D2F0E94110E73
:101E100080E00E94110E8C2F0E94110E81E00E9422
:101E2000110E8FE2DF91CF910C94110E8EE20C9483
:101E3000110E8091630190916401873A910519F424
:101E400086EA90E002C087EA90E090936401809374
:101E50006301809163010C94110ECF93DF9381E2B3
:101E60000E94110E80E00E94110E8FE70E94110E59
:101E700082E20E94110E80E00E94110E87E00E9413
:101E8000110EC0E0D0E0BE0184E0660F771F8A9596
:101E9000E1F764597E4F40E180E40E94EC0D219609
:101EA000C034D10581F7DF91CF91089584EC809300
:101EB000BC008091BC0087FFFCCF8091BB000895DF
:101EC00084E88093BC008091BC0087FFFCCF8091A8
:101ED000BB000895FF920F931F93CF93DF93D82FEA
:101EE000C62F042FF52E122F0E94CC0D883021F022
:101EF000803111F0C0E023C08D2F880F0E94DF0DCC
:101F0000883111F08032B1F78C2F0E94DF0D8832BA
:101F100039F4C02FDF2DCE01810F911D8C0108C037
:101F2000803341F7F6CF89910E94DF0D883221F48A
:101F3000C017D107C1F702C08033D1F3C1E00E94BE
:101F4000D70D8C2F90E0DF91CF911F910F91FF90D3
:101F50000895CF92DF92FF920F931F93CF93DF9359
:101F6000D82FC62F6A01022F0E94CC0D883011F0A5
:101F70008031F1F58D2F880F0E94DF0D883111F02F
:101F80008032B1F58C2F0E94DF0D883211F0803342
:101F900079F50E94CC0D883011F0803149F58D2FF4
:101FA000880F81600E94DF0D877F803409F5F12C56
:101FB00010E00150110901C0F394CF2DD0E0C017FB
:101FC000D1075CF40E94560FF601EC0FFD1F8083D1
:101FD0008091B900807F803579F3CC0DDD1D0E94A2
:101FE000600F88838091B900807FC1E0803509F05F
:101FF000C0E00E94D70D8C2F90E0DF91CF911F9110
:102000000F91FF90DF90CF900895880F8093BA00D2
:1020100008956F927F928F929F92AF92BF92CF92CC
:10202000DF92EF92FF920F931F93CF93DF936C0198
:102030004B013A015901E8010E942D0764E080E05C
:102040000E94EC0180E091E00E940D0C60E182E0D2
:102050000E94EC01B401990C880B990B0E943D0C75
:1020600060E18BE10E94EC0185E191E00E940D0CA2
:102070006BE182E00E94EC0189E191E00E940D0C8D
:102080006BE185E20E94EC01B501BB0C880B990B5A
:102090000E943D0C6BE187E30E94EC0180E291E03D
:1020A0000E940D0C68E282E00E94EC0183E291E064
:1020B0000E940D0C68E287E30E94EC01B601DD0C82
:1020C000880B990B0E943D0C68E286E40E94EC01AB
:1020D00080E291E00E940D0C65E38DE20E94EC012C
:1020E000B301770C880B990B0E943D0C65E381E4EA
:1020F0000E94EC018CE291E00E940D0C0FEF10E0C9
:102100002FE34AE560E38EE10E94520365E385E731
:102110000E94EC0189B1807A803A19F48FE291E053
:1021200009C089B1807A803819F481E391E002C056
:1021300083E391E00E940D0C0FEF10E02FE34EE7D8
:1021400060E380E70E94520364E186E60E94EC01AE
:10215000BE01DD0F880B990B0E943D0C64E188E7FE
:102160000E94EC0185E391E00E940D0C61E286E69D
:102170000E94EC01B701FF0C880B990B0E943D0CEB
:1021800061E288E70E94EC0187E391E00E940D0C78
:102190002DE24EE760E184E60E945203DF91CF9189
:1021A0001F910F91FF90EF90DF90CF90BF90AF9075
:1021B0009F908F907F906F900C942D0F81110AC08B
:1021C00080E680937C0087EE80937A0010927B00FB
:1021D0008EE315C0813051F481E680937C0087EE58
:1021E00080937A0010927B008DE309C082E6809391
:1021F0007C0087EE80937A0010927B008BE38093C3
:102200007E0008958F929F92AF92BF92CF92DF92FD
:10221000EF92FF920F931F93CF93DF93009158019A
:102220001091590120915A0130915B016B017C01A1
:10223000C01AD10AE20AF30A40E1C41647E2D40602
:10224000E104F10408F489C020915C0130915D0142
:10225000F9013196F0935D01E0935C0160935801C0
:102260007093590180935A0190935B01209147012B
:10227000309148014091560150915701E901C41B2A
:10228000D50BD0934001C0933F0130935701209369
:1022900056012091410130914201E29FB001E39F3C
:1022A000700DF29F700D112480E090E00E94B41533
:1022B0002BEB32EA41E959E30E946B160E94851527
:1022C0004B015C01709372056093710560914B0145
:1022D00070914C0180914D0190914E012AE330E0C4
:1022E00040E050E00E94641430936D0520936C052B
:1022F000E0906001F12C00915E0110915F018CE390
:102300008C9FB0018D9F700D1124A40180916E05EA
:1023100090916F050E94091060915C0170915D01C0
:1023200082E090E00E9479186091600180915301F1
:10233000861708F054C06093530188E090E0DF9165
:10234000CF911F910F91FF90EF90DF90CF90BF90B2
:10235000AF909F908F900C946B1888E8C81683E11B
:10236000D806E104F104D8F180913A01811106C048
:10237000809179008093700581E016C08130B9F4B6
:102380006091790070E080E090E00E94B61524E151
:102390003EEA47EC5EE30E946B160E94851570933F
:1023A0005F0160935E0182E080933A0108C09091E2
:1023B000790087EF891B8093600110923A01809128
:1023C0003A01DF91CF911F910F91FF90EF90DF9035
:1023D000CF90BF90AF909F908F900C94DE10DF91C4
:1023E000CF911F910F91FF90EF90DF90CF90BF9012
:1023F000AF909F908F9008959091C00095FFFCCF73
:102400008093C60008951F920F920FB60F92112469
:102410002F933F934F935F936F937F938F939F93EC
:10242000AF93BF93EF93FF9360916E0570916F052B
:102430006C3281E0780750F46F5F7F4F70936F05C7
:1024400060936E0580E090E00E947918FF91EF9113
:10245000BF91AF919F918F917F916F915F914F91BC
:102460003F912F910F900FBE0F901F9018951F92C4
:102470000F920FB60F9211242F933F934F935F93B8
:102480006F937F938F939F93AF93BF93EF93FF933C
:1024900060916E0570916F056230710550F061506A
:1024A000710970936F0560936E0580E090E00E9463
:1024B0007918FF91EF91BF91AF919F918F917F918B
:1024C0006F915F914F913F912F910F900FBE0F90A1
:1024D0001F9018951F920F920FB60F9211242F93F1
:1024E0003F934F935F936F937F938F939F93AF939C
:1024F000BF93EF93FF934C9B13C080914701909142
:102500004801A0914901B0914A010196A11DB11D58
:102510008093470190934801A0934901B0934A01E9
:102520004D9910C080915501811107C080E70E942C
:10253000FC1181E08093550105C08FE60E94FC11DB
:1025400010925501FF91EF91BF91AF919F918F91A3
:102550007F916F915F914F913F912F910F900FBE9F
:102560000F901F9018951F920F920FB60F92112483
:102570008F939F93AF93BF938091430190914401B8
:10258000A0914501B09146010196A11DB11D809316
:10259000430190934401A0934501B093460180917B
:1025A0003B01811107C080913E01880F806C85B985
:1025B00081E008C0813049F480913D01880F806A34
:1025C00085B982E080933B0107C080913C01880F70
:1025D000806685B910923B01BF91AF919F918F9119
:1025E0000F900FBE0F901F9018951F920F920FB66D
:1025F0000F9211244F935F936F937F938F939F93C9
:10260000AF93BF938091810086FF0FC080918600B9
:1026100090918700A0E0B0E080934F01909350012B
:10262000A0935101B093520121C0809186009091F6
:102630008700A0E0B0E040914F01509150016091BF
:10264000510170915201841B950BA60BB70B44E00E
:10265000880F991FAA1FBB1F4A95D1F780934B0182
:1026600090934C01A0934D01B0934E019091810045
:1026700080E4892780938100BF91AF919F918F91D2
:102680007F916F915F914F910F900FBE0F901F90B0
:1026900018951F920F920FB60F9211242F933F930C
:1026A0004F935F936F937F938F939F93AF93BF935A
:1026B000EF93FF938091C6008C3641F460E088E090
:1026C00090E00E946B181092530108C0843631F4D8
:1026D00088E090E00E945D180E94FC11FF91EF914C
:1026E000BF91AF919F918F917F916F915F914F912A
:1026F0003F912F910F900FBE0F901F9018950E9441
:10270000220E8AEE90E0909366018093650185E049
:102710008093670188E08093680181E0809369017C
:1027200010926B0110926A010E94190F87B1867F87
:1027300087B98EEF84B91AB88CE28BB983E884BD6F
:1027400093E095BD82E08093B0008093B10027ECC8
:102750002093B300809370001092800084E48093F3
:10276000810080E280936F0084E08093680080E1C4
:1027700080936D009DBB8AE08093690087EF809312
:102780007A0010927B008EE380937E001092C50049
:102790008FEF8093C40088E98093C10086E0809326
:1027A000C200789480E090E00E94651890936F05D5
:1027B00080936E0582E090E00E94651890935D0121
:1027C00080935C018CE3F82ECAE0D0E004E610E0D0
:1027D0009AE1E92E60914301709144018091450195
:1027E000909146010E94021160916E0570916F05F3
:1027F00080E090E00E94B41526E636E646E650E416
:102800000E946B1623EC35EF48E450E40E946B16EF
:102810004B015C0180913F0190914001F89EB00115
:10282000F99E700D112480E090E00E94B4159B0188
:10283000AC01C501B4010E946B1620E030E84BEBFF
:1028400055E40E940C150E9485159B01709342016E
:1028500060934101CB01BE010E94501480933E0160
:10286000CB01BE010E94501480933D01C901B80103
:102870000E945014CB01BE010E94501480933C0171
:1028800080916C0590916D058C32914028F4253132
:10289000310510F0E7BC9ECF8091700587BD9ACFBF
:1028A00097FB072E16F4009407D077FD09D00E94FD
:1028B000861407FC05D03EF4909581959F4F0895AE
:1028C000709561957F4F0895A1E21A2EAA1BBB1B3C
:1028D000FD010DC0AA1FBB1FEE1FFF1FA217B307EC
:1028E000E407F50720F0A21BB30BE40BF50B661F02
:1028F000771F881F991F1A9469F7609570958095C6
:1029000090959B01AC01BD01CF010895AA1BBB1B93
:1029100051E107C0AA1FBB1FA617B70710F0A61BDF
:10292000B70B881F991F5A95A9F780959095BC0100
:10293000CD0108955058BB27AA270E94B2140C94C9
:102940002C160E941E1638F00E94251620F039F42D
:102950009F3F19F426F40C941B160EF4E095E7FB48
:102960000C941516E92F0E943D1658F3BA1762070A
:1029700073078407950720F079F4A6F50C945F1689
:102980000EF4E0950B2EBA2FA02D0B01B90190018A
:102990000C01CA01A0011124FF27591B99F0593FCE
:1029A00050F4503E68F11A16F040A22F232F342F16
:1029B0004427585FF3CF469537952795A795F04064
:1029C0005395C9F77EF41F16BA0B620B730B840B79
:1029D000BAF09150A1F0FF0FBB1F661F771F881F31
:1029E000C2F70EC0BA0F621F731F841F48F4879589
:1029F00077956795B795F7959E3F08F0B0CF93957B
:102A0000880F08F09927EE0F9795879508950E94F3
:102A1000F11508F481E008950E9420150C942C16FD
:102A20000E94251658F00E941E1640F029F45F3FC0
:102A300029F00C94151651110C9460160C941B1669
:102A40000E943D1668F39923B1F3552391F3951B2A
:102A5000550BBB27AA2762177307840738F09F5FBF
:102A60005F4F220F331F441FAA1FA9F335D00E2E2C
:102A70003AF0E0E832D091505040E695001CCAF799
:102A80002BD0FE2F29D0660F771F881FBB1F26175C
:102A900037074807AB07B0E809F0BB0B802DBF0133
:102AA000FF2793585F4F3AF09E3F510578F00C9402
:102AB00015160C9460165F3FE4F3983ED4F38695A8
:102AC00077956795B795F7959F5FC9F7880F911D23
:102AD0009695879597F90895E1E0660F771F881F0F
:102AE000BB1F621773078407BA0720F0621B730BC2
:102AF000840BBA0BEE1F88F7E09508950E948515A8
:102B00006894B1110C94601608950E94451688F0DF
:102B10009F5798F0B92F9927B751B0F0E1F0660FA1
:102B2000771F881F991F1AF0BA95C9F714C0B130E2
:102B300091F00E945F16B1E008950C945F16672F24
:102B4000782F8827B85F39F0B93FCCF38695779511
:102B50006795B395D9F73EF49095809570956195FA
:102B60007F4F8F4F9F4F0895E89409C097FB3EF425
:102B700090958095709561957F4F8F4F9F4F9923CA
:102B8000A9F0F92F96E9BB279395F6958795779548
:102B90006795B795F111F8CFFAF4BB0F11F460FF08
:102BA0001BC06F5F7F4F8F4F9F4F16C0882311F060
:102BB00096E911C0772321F09EE8872F762F05C074
:102BC000662371F096E8862F70E060E02AF09A950F
:102BD000660F771F881FDAF7880F9695879597F904
:102BE0000895990F0008550FAA0BE0E8FEEF16169E
:102BF0001706E807F907C0F012161306E407F507F1
:102C000098F0621B730B840B950B39F40A2661F064
:102C1000232B242B252B21F408950A2609F4A14007
:102C2000A6958FEF811D811D089597F99F6780E814
:102C300070E060E008959FEF80EC089500240A940E
:102C40001616170618060906089500240A94121687
:102C50001306140605060895092E0394000C11F4BA
:102C6000882352F0BB0F40F4BF2B11F460FF04C067
:102C70006F5F7F4F8F4F9F4F089557FD9058440FC0
:102C8000551F59F05F3F71F04795880F97FB991FCB
:102C900061F09F3F79F08795089512161306140688
:102CA000551FF2CF4695F1DF08C016161706180615
:102CB000991FF1CF86957105610508940895E894F0
:102CC000BB2766277727CB0197F908950E94F11556
:102CD00008F48FEF08950E947E160C942C160E9423
:102CE0001E1638F00E94251620F0952311F00C9442
:102CF00015160C941B1611240C9460160E943D1698
:102D000070F3959FC1F3950F50E0551F629FF0013E
:102D1000729FBB27F00DB11D639FAA27F00DB11D57
:102D2000AA1F649F6627B00DA11D661F829F2227E0
:102D3000B00DA11D621F739FB00DA11D621F839F67
:102D4000A00D611D221F749F3327A00D611D231F3D
:102D5000849F600D211D822F762F6A2F11249F578B
:102D600050409AF0F1F088234AF0EE0FFF1FBB1F8E
:102D7000661F771F881F91505040A9F79E3F51054D
:102D800080F00C9415160C9460165F3FE4F3983EA7
:102D9000D4F3869577956795B795F795E7959F5FF7
:102DA000C1F7FE2B880F911D9695879597F9089589
:102DB000FA01EE0FFF1F309621053105A1F16115D3
:102DC000710561F48038BFE39B0749F1689490383E
:102DD000810561F08038BFEF9B0741F099234AF5E8
:102DE000FF3FE1053105210519F1E8940894E795C5
:102DF000D901AA2329F4AB2FBE2FF85FD0F310C05E
:102E0000FF5F70F4A695E0F7F73950F019F0FF3A3C
:102E100038F49F779F930DD00F9007FC905808953A
:102E200046F00C941B1660E070E080E89FE3089584
:102E30004FE79F775F934F933F932F930E94D31752
:102E40002F913F914F915F910E946B160C94301718
:102E500029F416F00C9415160C945F160C941B169E
:102E60000E944516A8F39638A0F707F80F92E89449
:102E70002BE33AEA48EB5FE70E9481160F920F922C
:102E80000F924DB75EB70F920E941B18E8E6F0E074
:102E90000E9462174F915F91EF91FF91E595EE1FB0
:102EA000FF1F49F0FE57E0684427EE0F441FFA95D4
:102EB000E1F74195550B0E9495170F9007FE0C9472
:102EC00089170895DF93CF931F930F93FF92EF928B
:102ED000DF927B018C01689406C0DA2EEF010E941C
:102EE0007E16FE01E894A591259135914591559165
:102EF000A6F3EF010E94B214FE019701A801DA9433
:102F000069F7DF90EF90FF900F911F91CF91DF91C4
:102F100008959B01AC0160E070E080E89FE30C94B1
:102F20000C150C9415160C944F180E944516D8F3E6
:102F30009923C9F3940F511DA3F39150504094F07D
:102F400059F0882332F0660F771F881F9150504048
:102F5000C1F79E3F51052CF7880F911D96958795D7
:102F600097F908955F3FACF0983E9CF0BB2786959B
:102F700077956795B79508F4B1609395C1F7BB0F46
:102F800058F711F460FFE8CF6F5F7F4F8F4F9F4F6F
:102F9000E3CF0C94601616F00C944F180C941B168B
:102FA00068940C9415160E944516A8F39923C1F352
:102FB000AEF3DF93CF931F930F93FF92C92FDD27BB
:102FC00088232AF02197660F771F881FDAF720E001
:102FD00030E040E85FEB9FE3883920F0803E38F036
:102FE00021968F770E949B14E0E9F0E004C00E94D4
:102FF0009B14EDEBF0E00E9462178B01BE01EC0127
:10300000FB2E6F5771097595771F880B990B0E94DE
:10301000B61528E132E741E35FE30E947E16AF2D4B
:103020009801AE01FF900F911F91CF91DF910E9407
:10303000B2140C942C16FA01DC01AA0FBB1F9B01E1
:10304000AC01BF5728F4222733274427507820C0EB
:10305000B75190F4AB2F0024469537952795011C66
:10306000A395D2F3002071F0220F331F441FB395B4
:10307000DAF30ED00C949A1461307105A0E88A0737
:10308000B94630F49B01AC016627772788279078F2
:10309000309621F0208331834283538308959F3FEC
:1030A00031F0915020F4879577956795B795880F03
:1030B000911D9695879597F90895F999FECF92BD40
:1030C00081BDF89A992780B50895A8E1B0E042E063
:1030D00050E00C948018262FF999FECF1FBA92BDAC
:1030E00081BD20BD0FB6F894FA9AF99A0FBE0196E9
:1030F00008950E946B18272F0C946C18DC01CB01EB
:10310000FC01F999FECF06C0F2BDE1BDF89A3196F7
:1031100000B40D9241505040B8F70895F894FFCF95
:1031200020436F6D70757461646F72206465204216
:103130006F72646F0072706D00536F6E61723A004F
:10314000636D00442E20506E65753A006B6D005221
:0A3150000044005000250043000079
:00000001FF
