:100000000C9434000C943E000C943E000C943E0082
:100010000C943E000C943E000C943E000C943E0068
:100020000C943E000C943E000C943E000C943E0058
:100030000C943E000C943E000C943E000C943E0048
:100040000C943E000C943E000C9440000C943E0036
:100050000C943E000C943E000C943E000C943E0028
:100060000C943E000C943E0011241FBECFEFD8E04C
:10007000DEBFCDBF0E945E000C94A5000C94000072
:100080001F920F920FB60F9211248F938091C6008A
:10009000863619F480E388B90BC0853611F418B898
:1000A00007C0803711F42D9A03C08F3609F42D98BC
:1000B0008F910F900FBE0F901F90189580E387B916
:1000C00086E284B98FE39CE9909387008093860051
:1000D00082EA809380008AE1809381001092C500BB
:1000E0008FEF8093C40088E98093C10086E08093FD
:1000F000C200789480ED97E0909389008093880007
:100100002FEF31EE44E0215030404040E1F700C095
:1001100000008C599F4F803A2FE0920769F780EAE0
:100120009FE090938B0080938A003FEF41EE24E0A4
:10013000315040402040E1F700C000008456910952
:0E014000803D37E0930769F7D5CFF894FFCFE5
:00000001FF
